{
  "contractName": "BlockStorage",
  "abi": [
    {
      "inputs": [
        {
          "internalType": "uint256",
          "name": "_currentEpoch",
          "type": "uint256"
        },
        {
          "internalType": "uint256",
          "name": "_difficulty",
          "type": "uint256"
        }
      ],
      "stateMutability": "nonpayable",
      "type": "constructor"
    },
    {
      "anonymous": false,
      "inputs": [
        {
          "indexed": true,
          "internalType": "uint256",
          "name": "epoch",
          "type": "uint256"
        },
        {
          "indexed": true,
          "internalType": "uint256",
          "name": "duration",
          "type": "uint256"
        }
      ],
      "name": "EpochDurationSet",
      "type": "event"
    },
    {
      "anonymous": false,
      "inputs": [
        {
          "indexed": true,
          "internalType": "uint256",
          "name": "epoch",
          "type": "uint256"
        },
        {
          "indexed": false,
          "internalType": "uint256",
          "name": "difficulty",
          "type": "uint256"
        },
        {
          "indexed": false,
          "internalType": "uint256",
          "name": "ts",
          "type": "uint256"
        }
      ],
      "name": "NewEpoch",
      "type": "event"
    },
    {
      "anonymous": false,
      "inputs": [
        {
          "indexed": true,
          "internalType": "uint256",
          "name": "hashId",
          "type": "uint256"
        },
        {
          "indexed": true,
          "internalType": "uint256",
          "name": "epoch",
          "type": "uint256"
        },
        {
          "indexed": true,
          "internalType": "address",
          "name": "account",
          "type": "address"
        },
        {
          "indexed": false,
          "internalType": "bytes",
          "name": "_bytes",
          "type": "bytes"
        }
      ],
      "name": "NewHash",
      "type": "event"
    },
    {
      "anonymous": false,
      "inputs": [
        {
          "indexed": true,
          "internalType": "address",
          "name": "previousOwner",
          "type": "address"
        },
        {
          "indexed": true,
          "internalType": "address",
          "name": "newOwner",
          "type": "address"
        }
      ],
      "name": "OwnershipTransferred",
      "type": "event"
    },
    {
      "anonymous": false,
      "inputs": [
        {
          "indexed": true,
          "internalType": "uint256",
          "name": "epoch",
          "type": "uint256"
        },
        {
          "indexed": true,
          "internalType": "uint256",
          "name": "difficulty",
          "type": "uint256"
        }
      ],
      "name": "TargetDifficultySet",
      "type": "event"
    },
    {
      "inputs": [],
      "name": "TARGET_BLOCK_TIME_S",
      "outputs": [
        {
          "internalType": "uint256",
          "name": "",
          "type": "uint256"
        }
      ],
      "stateMutability": "view",
      "type": "function"
    },
    {
      "inputs": [
        {
          "internalType": "uint256",
          "name": "",
          "type": "uint256"
        }
      ],
      "name": "addressesByHashId",
      "outputs": [
        {
          "internalType": "address",
          "name": "",
          "type": "address"
        }
      ],
      "stateMutability": "view",
      "type": "function"
    },
    {
      "inputs": [],
      "name": "currentEpoch",
      "outputs": [
        {
          "internalType": "uint256",
          "name": "",
          "type": "uint256"
        }
      ],
      "stateMutability": "view",
      "type": "function"
    },
    {
      "inputs": [],
      "name": "currentEpochTs",
      "outputs": [
        {
          "internalType": "uint256",
          "name": "",
          "type": "uint256"
        }
      ],
      "stateMutability": "view",
      "type": "function"
    },
    {
      "inputs": [],
      "name": "currentHashId",
      "outputs": [
        {
          "internalType": "uint256",
          "name": "",
          "type": "uint256"
        }
      ],
      "stateMutability": "view",
      "type": "function"
    },
    {
      "inputs": [],
      "name": "difficulty",
      "outputs": [
        {
          "internalType": "uint256",
          "name": "",
          "type": "uint256"
        }
      ],
      "stateMutability": "view",
      "type": "function"
    },
    {
      "inputs": [],
      "name": "epochDurationSec",
      "outputs": [
        {
          "internalType": "uint256",
          "name": "",
          "type": "uint256"
        }
      ],
      "stateMutability": "view",
      "type": "function"
    },
    {
      "inputs": [],
      "name": "epochHashCounter",
      "outputs": [
        {
          "internalType": "uint256",
          "name": "",
          "type": "uint256"
        }
      ],
      "stateMutability": "view",
      "type": "function"
    },
    {
      "inputs": [
        {
          "internalType": "address",
          "name": "",
          "type": "address"
        },
        {
          "internalType": "uint256",
          "name": "",
          "type": "uint256"
        }
      ],
      "name": "hashIdsByAddress",
      "outputs": [
        {
          "internalType": "uint256",
          "name": "",
          "type": "uint256"
        }
      ],
      "stateMutability": "view",
      "type": "function"
    },
    {
      "inputs": [
        {
          "internalType": "uint256",
          "name": "",
          "type": "uint256"
        }
      ],
      "name": "hashRecords",
      "outputs": [
        {
          "internalType": "bytes",
          "name": "",
          "type": "bytes"
        }
      ],
      "stateMutability": "view",
      "type": "function"
    },
    {
      "inputs": [],
      "name": "owner",
      "outputs": [
        {
          "internalType": "address",
          "name": "",
          "type": "address"
        }
      ],
      "stateMutability": "view",
      "type": "function"
    },
    {
      "inputs": [
        {
          "internalType": "address",
          "name": "",
          "type": "address"
        }
      ],
      "name": "recordCount",
      "outputs": [
        {
          "internalType": "uint256",
          "name": "",
          "type": "uint256"
        }
      ],
      "stateMutability": "view",
      "type": "function"
    },
    {
      "inputs": [],
      "name": "renounceOwnership",
      "outputs": [],
      "stateMutability": "nonpayable",
      "type": "function"
    },
    {
      "inputs": [],
      "name": "targetDifficulty",
      "outputs": [
        {
          "internalType": "uint256",
          "name": "",
          "type": "uint256"
        }
      ],
      "stateMutability": "view",
      "type": "function"
    },
    {
      "inputs": [
        {
          "internalType": "address",
          "name": "newOwner",
          "type": "address"
        }
      ],
      "name": "transferOwnership",
      "outputs": [],
      "stateMutability": "nonpayable",
      "type": "function"
    },
    {
      "inputs": [
        {
          "internalType": "uint256",
          "name": "_epochDurationSec",
          "type": "uint256"
        }
      ],
      "name": "setEpochDurationSec",
      "outputs": [],
      "stateMutability": "nonpayable",
      "type": "function"
    },
    {
      "inputs": [
        {
          "internalType": "uint256",
          "name": "_targetDifficulty",
          "type": "uint256"
        }
      ],
      "name": "setTargetDifficulty",
      "outputs": [],
      "stateMutability": "nonpayable",
      "type": "function"
    },
    {
      "inputs": [],
      "name": "doHousekeeping",
      "outputs": [],
      "stateMutability": "nonpayable",
      "type": "function"
    },
    {
      "inputs": [
        {
          "internalType": "address",
          "name": "_address",
          "type": "address"
        },
        {
          "components": [
            {
              "internalType": "uint8",
              "name": "c",
              "type": "uint8"
            },
            {
              "internalType": "uint32",
              "name": "m",
              "type": "uint32"
            },
            {
              "internalType": "uint8",
              "name": "t",
              "type": "uint8"
            },
            {
              "internalType": "uint8",
              "name": "v",
              "type": "uint8"
            },
            {
              "internalType": "bytes32",
              "name": "k",
              "type": "bytes32"
            },
            {
              "internalType": "bytes",
              "name": "s",
              "type": "bytes"
            }
          ],
          "internalType": "struct BlockStorage.HashRecord",
          "name": "r",
          "type": "tuple"
        }
      ],
      "name": "storeNewRecord",
      "outputs": [],
      "stateMutability": "nonpayable",
      "type": "function"
    },
    {
      "inputs": [
        {
          "internalType": "address",
          "name": "_address",
          "type": "address"
        },
        {
          "internalType": "uint8",
          "name": "c",
          "type": "uint8"
        },
        {
          "internalType": "uint32",
          "name": "m",
          "type": "uint32"
        },
        {
          "internalType": "uint8",
          "name": "t",
          "type": "uint8"
        },
        {
          "internalType": "uint8",
          "name": "v",
          "type": "uint8"
        },
        {
          "internalType": "bytes32",
          "name": "k",
          "type": "bytes32"
        },
        {
          "internalType": "bytes",
          "name": "s",
          "type": "bytes"
        }
      ],
      "name": "storeNewRecordData",
      "outputs": [],
      "stateMutability": "nonpayable",
      "type": "function"
    },
    {
      "inputs": [
        {
          "internalType": "address",
          "name": "_address",
          "type": "address"
        },
        {
          "internalType": "bytes",
          "name": "_bytes",
          "type": "bytes"
        }
      ],
      "name": "storeNewRecordBytes",
      "outputs": [],
      "stateMutability": "nonpayable",
      "type": "function"
    },
    {
      "inputs": [
        {
          "internalType": "address",
          "name": "_address",
          "type": "address"
        },
        {
          "components": [
            {
              "internalType": "uint8",
              "name": "c",
              "type": "uint8"
            },
            {
              "internalType": "uint32",
              "name": "m",
              "type": "uint32"
            },
            {
              "internalType": "uint8",
              "name": "t",
              "type": "uint8"
            },
            {
              "internalType": "uint8",
              "name": "v",
              "type": "uint8"
            },
            {
              "internalType": "bytes32",
              "name": "k",
              "type": "bytes32"
            },
            {
              "internalType": "bytes",
              "name": "s",
              "type": "bytes"
            }
          ],
          "internalType": "struct BlockStorage.HashRecord[]",
          "name": "hh",
          "type": "tuple[]"
        }
      ],
      "name": "bulkStoreRecordsInc",
      "outputs": [],
      "stateMutability": "nonpayable",
      "type": "function"
    },
    {
      "inputs": [
        {
          "internalType": "address",
          "name": "_address",
          "type": "address"
        },
        {
          "internalType": "bytes[]",
          "name": "bb",
          "type": "bytes[]"
        }
      ],
      "name": "bulkStoreRecordBytesInc",
      "outputs": [],
      "stateMutability": "nonpayable",
      "type": "function"
    },
    {
      "inputs": [
        {
          "internalType": "address",
          "name": "_address",
          "type": "address"
        },
        {
          "internalType": "uint256[]",
          "name": "_hasIds",
          "type": "uint256[]"
        },
        {
          "components": [
            {
              "internalType": "uint8",
              "name": "c",
              "type": "uint8"
            },
            {
              "internalType": "uint32",
              "name": "m",
              "type": "uint32"
            },
            {
              "internalType": "uint8",
              "name": "t",
              "type": "uint8"
            },
            {
              "internalType": "uint8",
              "name": "v",
              "type": "uint8"
            },
            {
              "internalType": "bytes32",
              "name": "k",
              "type": "bytes32"
            },
            {
              "internalType": "bytes",
              "name": "s",
              "type": "bytes"
            }
          ],
          "internalType": "struct BlockStorage.HashRecord[]",
          "name": "hh",
          "type": "tuple[]"
        }
      ],
      "name": "bulkStoreRecords",
      "outputs": [],
      "stateMutability": "nonpayable",
      "type": "function"
    },
    {
      "inputs": [
        {
          "internalType": "address",
          "name": "_address",
          "type": "address"
        },
        {
          "internalType": "uint256[]",
          "name": "_hasIds",
          "type": "uint256[]"
        },
        {
          "internalType": "bytes[]",
          "name": "bb",
          "type": "bytes[]"
        }
      ],
      "name": "bulkStoreRecordBytes",
      "outputs": [],
      "stateMutability": "nonpayable",
      "type": "function"
    },
    {
      "inputs": [
        {
          "internalType": "address",
          "name": "_address",
          "type": "address"
        },
        {
          "internalType": "uint256",
          "name": "_index",
          "type": "uint256"
        }
      ],
      "name": "getBytesLen",
      "outputs": [
        {
          "internalType": "uint256",
          "name": "len",
          "type": "uint256"
        }
      ],
      "stateMutability": "view",
      "type": "function"
    },
    {
      "inputs": [
        {
          "internalType": "address",
          "name": "_address",
          "type": "address"
        },
        {
          "internalType": "uint256",
          "name": "_idx",
          "type": "uint256"
        }
      ],
      "name": "decodeRecordBytes",
      "outputs": [
        {
          "internalType": "uint8",
          "name": "c",
          "type": "uint8"
        },
        {
          "internalType": "uint32",
          "name": "m",
          "type": "uint32"
        },
        {
          "internalType": "uint8",
          "name": "t",
          "type": "uint8"
        },
        {
          "internalType": "uint8",
          "name": "v",
          "type": "uint8"
        },
        {
          "internalType": "bytes32",
          "name": "k",
          "type": "bytes32"
        },
        {
          "internalType": "bytes",
          "name": "s",
          "type": "bytes"
        }
      ],
      "stateMutability": "view",
      "type": "function"
    },
    {
      "inputs": [
        {
          "internalType": "uint256",
          "name": "_hashId",
          "type": "uint256"
        }
      ],
      "name": "decodeRecordBytes",
      "outputs": [
        {
          "internalType": "uint8",
          "name": "c",
          "type": "uint8"
        },
        {
          "internalType": "uint32",
          "name": "m",
          "type": "uint32"
        },
        {
          "internalType": "uint8",
          "name": "t",
          "type": "uint8"
        },
        {
          "internalType": "uint8",
          "name": "v",
          "type": "uint8"
        },
        {
          "internalType": "bytes32",
          "name": "k",
          "type": "bytes32"
        },
        {
          "internalType": "bytes",
          "name": "s",
          "type": "bytes"
        }
      ],
      "stateMutability": "view",
      "type": "function"
    },
    {
      "inputs": [
        {
          "internalType": "address",
          "name": "_address",
          "type": "address"
        }
      ],
      "name": "getHashIdsByAddress",
      "outputs": [
        {
          "internalType": "uint256[]",
          "name": "ids",
          "type": "uint256[]"
        }
      ],
      "stateMutability": "view",
      "type": "function"
    },
    {
      "inputs": [
        {
          "internalType": "address",
          "name": "_address",
          "type": "address"
        }
      ],
      "name": "getRecordsByAddress",
      "outputs": [
        {
          "components": [
            {
              "internalType": "uint8",
              "name": "c",
              "type": "uint8"
            },
            {
              "internalType": "uint32",
              "name": "m",
              "type": "uint32"
            },
            {
              "internalType": "uint8",
              "name": "t",
              "type": "uint8"
            },
            {
              "internalType": "uint8",
              "name": "v",
              "type": "uint8"
            },
            {
              "internalType": "bytes32",
              "name": "k",
              "type": "bytes32"
            },
            {
              "internalType": "bytes",
              "name": "s",
              "type": "bytes"
            }
          ],
          "internalType": "struct BlockStorage.HashRecord[]",
          "name": "recs",
          "type": "tuple[]"
        }
      ],
      "stateMutability": "view",
      "type": "function"
    }
  ],
  "bytecode": "0x6080604052603c600555620186a06006553480156200001d57600080fd5b50604051620032063803806200320683398181016040528101906200004391906200017d565b6000620000556200013560201b60201c565b9050806000806101000a81548173ffffffffffffffffffffffffffffffffffffffff021916908373ffffffffffffffffffffffffffffffffffffffff1602179055508073ffffffffffffffffffffffffffffffffffffffff16600073ffffffffffffffffffffffffffffffffffffffff167f8be0079c531659141344cd1fd0a4f28419497f9722a3daafe3b4186f6b6457e060405160405180910390a350600082116200010457600162000106565b815b600881905550600081116200011e5760065462000120565b805b600a81905550426009819055505050620001c4565b600033905090565b600080fd5b6000819050919050565b620001578162000142565b81146200016357600080fd5b50565b60008151905062000177816200014c565b92915050565b600080604083850312156200019757620001966200013d565b5b6000620001a78582860162000166565b9250506020620001ba8582860162000166565b9150509250929050565b61303280620001d46000396000f3fe608060405234801561001057600080fd5b50600436106101da5760003560e01c80638b2db16e11610104578063ba63245d116100a2578063db658b0f11610071578063db658b0f1461054f578063e16165311461057f578063ee5f88321461059b578063f2fde38b146105b7576101da565b8063ba63245d146104b2578063c78d90d4146104e2578063cb48c1b6146104fe578063cf81e8991461051a576101da565b8063a5cdb7e5116100de578063a5cdb7e514610418578063a6def31114610434578063a9abec5b14610464578063ad88bb2714610482576101da565b80638b2db16e146103ac5780638da5cb5b146103ca578063a3d2216d146103e8576101da565b80632c292d7a1161017c57806374811f6f1161014b57806374811f6f1461034c5780637667180814610368578063799f63351461038657806385ae2fb7146103a2576101da565b80632c292d7a146102d857806345fbbb8c146102f457806347efe9ab14610324578063715018a614610342576101da565b80630ff99d59116101b85780630ff99d591461024e578063151b8f4e1461026c57806319cae4621461028a57806327b50bfa146102a8576101da565b806306ffc5ea146101df5780630747b9c1146101fd5780630e86b75e14610232575b600080fd5b6101e76105d3565b6040516101f49190611b79565b60405180910390f35b61021760048036038101906102129190611c28565b6105d9565b60405161022996959493929190611d4c565b60405180910390f35b61024c60048036038101906102479190611e9d565b610652565b005b6102566106a6565b6040516102639190611b79565b60405180910390f35b6102746106ab565b6040516102819190611b79565b60405180910390f35b6102926106b1565b60405161029f9190611b79565b60405180910390f35b6102c260048036038101906102bd9190611c28565b6106b7565b6040516102cf9190611b79565b60405180910390f35b6102f260048036038101906102ed919061200b565b6107b3565b005b61030e600480360381019061030991906120a0565b61095d565b60405161031b919061218b565b60405180910390f35b61032c610a8f565b6040516103399190611b79565b60405180910390f35b61034a610a95565b005b610366600480360381019061036191906121ad565b610bcf565b005b610370610c98565b60405161037d9190611b79565b60405180910390f35b6103a0600480360381019061039b91906121ad565b610c9e565b005b6103aa610d97565b005b6103b4610e4d565b6040516103c19190611b79565b60405180910390f35b6103d2610e53565b6040516103df91906121e9565b60405180910390f35b61040260048036038101906103fd9190611c28565b610e7c565b60405161040f9190611b79565b60405180910390f35b610432600480360381019061042d9190612204565b610ea1565b005b61044e600480360381019061044991906121ad565b610f09565b60405161045b91906121e9565b60405180910390f35b61046c610f3c565b6040516104799190611b79565b60405180910390f35b61049c600480360381019061049791906120a0565b610f42565b6040516104a99190612426565b60405180910390f35b6104cc60048036038101906104c791906120a0565b61115d565b6040516104d99190611b79565b60405180910390f35b6104fc60048036038101906104f79190612448565b611175565b005b610518600480360381019061051391906124fe565b611318565b005b610534600480360381019061052f91906121ad565b6113c5565b60405161054696959493929190611d4c565b60405180910390f35b610569600480360381019061056491906121ad565b61152a565b604051610576919061255e565b60405180910390f35b610599600480360381019061059491906125a4565b6115ca565b005b6105b560048036038101906105b09190612600565b611672565b005b6105d160048036038101906105cc91906120a0565b611726565b005b60075481565b6000806000806000606061063c600260008a73ffffffffffffffffffffffffffffffffffffffff1673ffffffffffffffffffffffffffffffffffffffff1681526020019081526020016000206000898152602001908152602001600020546113c5565b9550955095509550955095509295509295509295565b61069c88600760008154610665906126c4565b9190508190558989898989898960405160200161068897969594939291906127d8565b6040516020818303038152906040526118ce565b5050505050505050565b600181565b60055481565b600a5481565b60008060016000600260008773ffffffffffffffffffffffffffffffffffffffff1673ffffffffffffffffffffffffffffffffffffffff1681526020019081526020016000206000868152602001908152602001600020548152602001908152602001600020805461072890612875565b80601f016020809104026020016040519081016040528092919081815260200182805461075490612875565b80156107a15780601f10610776576101008083540402835291602001916107a1565b820191906000526020600020905b81548152906001019060200180831161078457829003601f168201915b50505050509050805191505092915050565b60005b8282905081101561095557610942868686848181106107d8576107d76128a6565b5b905060200201358585858181106107f2576107f16128a6565b5b905060200281019061080491906128e4565b6000016020810190610816919061290c565b868686818110610829576108286128a6565b5b905060200281019061083b91906128e4565b602001602081019061084d9190612939565b8787878181106108605761085f6128a6565b5b905060200281019061087291906128e4565b6040016020810190610884919061290c565b888888818110610897576108966128a6565b5b90506020028101906108a991906128e4565b60600160208101906108bb919061290c565b8989898181106108ce576108cd6128a6565b5b90506020028101906108e091906128e4565b608001358a8a8a8181106108f7576108f66128a6565b5b905060200281019061090991906128e4565b8060a001906109189190612966565b60405160200161092e97969594939291906127d8565b604051602081830303815290604052611950565b808061094d906126c4565b9150506107b6565b505050505050565b60606000600360008473ffffffffffffffffffffffffffffffffffffffff1673ffffffffffffffffffffffffffffffffffffffff1681526020019081526020016000205490508067ffffffffffffffff8111156109bd576109bc6129c9565b5b6040519080825280602002602001820160405280156109eb5781602001602082028036833780820191505090505b50915060005b81811015610a8857600260008573ffffffffffffffffffffffffffffffffffffffff1673ffffffffffffffffffffffffffffffffffffffff1681526020019081526020016000206000600183610a4791906129f8565b815260200190815260200160002054838281518110610a6957610a686128a6565b5b6020026020010181815250508080610a80906126c4565b9150506109f1565b5050919050565b600b5481565b610a9d611b10565b73ffffffffffffffffffffffffffffffffffffffff16610abb610e53565b73ffffffffffffffffffffffffffffffffffffffff1614610b11576040517f08c379a0000000000000000000000000000000000000000000000000000000008152600401610b0890612a89565b60405180910390fd5b600073ffffffffffffffffffffffffffffffffffffffff1660008054906101000a900473ffffffffffffffffffffffffffffffffffffffff1673ffffffffffffffffffffffffffffffffffffffff167f8be0079c531659141344cd1fd0a4f28419497f9722a3daafe3b4186f6b6457e060405160405180910390a360008060006101000a81548173ffffffffffffffffffffffffffffffffffffffff021916908373ffffffffffffffffffffffffffffffffffffffff160217905550565b610bd7611b10565b73ffffffffffffffffffffffffffffffffffffffff16610bf5610e53565b73ffffffffffffffffffffffffffffffffffffffff1614610c4b576040517f08c379a0000000000000000000000000000000000000000000000000000000008152600401610c4290612a89565b60405180910390fd5b60008111610c8e576040517f08c379a0000000000000000000000000000000000000000000000000000000008152600401610c8590612af5565b60405180910390fd5b8060068190555050565b60085481565b610ca6611b10565b73ffffffffffffffffffffffffffffffffffffffff16610cc4610e53565b73ffffffffffffffffffffffffffffffffffffffff1614610d1a576040517f08c379a0000000000000000000000000000000000000000000000000000000008152600401610d1190612a89565b60405180910390fd5b60008111610d5d576040517f08c379a0000000000000000000000000000000000000000000000000000000008152600401610d5490612b61565b60405180910390fd5b80600581905550806008547f361d876894ff3854d2e192162a59a0ce8d9e27637af1302a2b8af18e3b007b2460405160405180910390a350565b60055460095442610da89190612b81565b1115610e4b574260098190555060086000815480929190610dc8906126c4565b919050555060006001600554610dde9190612be4565b905080600b54600654610df19190612c15565b610dfb9190612be4565b600a819055506000600b819055506008547f3bb7b347508b7c148ec2094ac60d2e3d8b7595421025643f08b45cb78b326b58600a54600954604051610e41929190612c57565b60405180910390a2505b565b60065481565b60008060009054906101000a900473ffffffffffffffffffffffffffffffffffffffff16905090565b6002602052816000526040600020602052806000526040600020600091509150505481565b610f0483600760008154610eb4906126c4565b91905081905584848080601f016020809104026020016040519081016040528093929190818152602001838380828437600081840152601f19601f820116905080830192505050505050506118ce565b505050565b60046020528060005260406000206000915054906101000a900473ffffffffffffffffffffffffffffffffffffffff1681565b60095481565b60606000600360008473ffffffffffffffffffffffffffffffffffffffff1673ffffffffffffffffffffffffffffffffffffffff1681526020019081526020016000205490508067ffffffffffffffff811115610fa257610fa16129c9565b5b604051908082528060200260200182016040528015610fdb57816020015b610fc8611b18565b815260200190600190039081610fc05790505b50915060005b81811015611156576000600260008673ffffffffffffffffffffffffffffffffffffffff1673ffffffffffffffffffffffffffffffffffffffff168152602001908152602001600020600060018461103991906129f8565b8152602001908152602001600020549050611053816113c5565b898881518110611066576110656128a6565b5b60200260200101516000018a8981518110611084576110836128a6565b5b60200260200101516020018b8a815181106110a2576110a16128a6565b5b60200260200101516040018c8b815181106110c0576110bf6128a6565b5b60200260200101516060018d8c815181106110de576110dd6128a6565b5b60200260200101516080018e8d815181106110fc576110fb6128a6565b5b602002602001015160a001869052868152508660ff1660ff168152508660ff1660ff168152508663ffffffff1663ffffffff168152508660ff1660ff1681525050505050505050808061114e906126c4565b915050610fe1565b5050919050565b60036020528060005260406000206000915090505481565b60005b82829050811015611312576112ff84600760008154611196906126c4565b9190508190558585858181106111af576111ae6128a6565b5b90506020028101906111c191906128e4565b60000160208101906111d3919061290c565b8686868181106111e6576111e56128a6565b5b90506020028101906111f891906128e4565b602001602081019061120a9190612939565b87878781811061121d5761121c6128a6565b5b905060200281019061122f91906128e4565b6040016020810190611241919061290c565b888888818110611254576112536128a6565b5b905060200281019061126691906128e4565b6060016020810190611278919061290c565b89898981811061128b5761128a6128a6565b5b905060200281019061129d91906128e4565b608001358a8a8a8181106112b4576112b36128a6565b5b90506020028101906112c691906128e4565b8060a001906112d59190612966565b6040516020016112eb97969594939291906127d8565b604051602081830303815290604052611950565b808061130a906126c4565b915050611178565b50505050565b60005b828290508110156113bf576113ac84600760008154611339906126c4565b919050819055858585818110611352576113516128a6565b5b90506020028101906113649190612966565b8080601f016020809104026020016040519081016040528093929190818152602001838380828437600081840152601f19601f82011690508083019250505050505050611950565b80806113b7906126c4565b91505061131b565b50505050565b6000806000806000606060006001600089815260200190815260200160002080546113ef90612875565b80601f016020809104026020016040519081016040528092919081815260200182805461141b90612875565b80156114685780601f1061143d57610100808354040283529160200191611468565b820191906000526020600020905b81548152906001019060200180831161144b57829003601f168201915b5050505050905060008151905060018201519750600582015196506006820151955060078201519450602782015193506027816114a59190612b81565b67ffffffffffffffff8111156114be576114bd6129c9565b5b6040519080825280601f01601f1916602001820160405280156114f05781602001600182028036833780820191505090505b509250602083016027820360005b8181101561151c5780602801850151818401536001810190506114fe565b505050505091939550919395565b6001602052806000526040600020600091509050805461154990612875565b80601f016020809104026020016040519081016040528092919081815260200182805461157590612875565b80156115c25780601f10611597576101008083540402835291602001916115c2565b820191906000526020600020905b8154815290600101906020018083116115a557829003601f168201915b505050505081565b61166e826007600081546115dd906126c4565b9190508190558360000160208101906115f6919061290c565b8460200160208101906116099190612939565b85604001602081019061161c919061290c565b86606001602081019061162f919061290c565b8760800135888060a001906116449190612966565b60405160200161165a97969594939291906127d8565b6040516020818303038152906040526118ce565b5050565b60005b8282905081101561171e5761170b86868684818110611697576116966128a6565b5b905060200201358585858181106116b1576116b06128a6565b5b90506020028101906116c39190612966565b8080601f016020809104026020016040519081016040528093929190818152602001838380828437600081840152601f19601f82011690508083019250505050505050611950565b8080611716906126c4565b915050611675565b505050505050565b61172e611b10565b73ffffffffffffffffffffffffffffffffffffffff1661174c610e53565b73ffffffffffffffffffffffffffffffffffffffff16146117a2576040517f08c379a000000000000000000000000000000000000000000000000000000000815260040161179990612a89565b60405180910390fd5b600073ffffffffffffffffffffffffffffffffffffffff168173ffffffffffffffffffffffffffffffffffffffff1603611811576040517f08c379a000000000000000000000000000000000000000000000000000000000815260040161180890612cf2565b60405180910390fd5b8073ffffffffffffffffffffffffffffffffffffffff1660008054906101000a900473ffffffffffffffffffffffffffffffffffffffff1673ffffffffffffffffffffffffffffffffffffffff167f8be0079c531659141344cd1fd0a4f28419497f9722a3daafe3b4186f6b6457e060405160405180910390a3806000806101000a81548173ffffffffffffffffffffffffffffffffffffffff021916908373ffffffffffffffffffffffffffffffffffffffff16021790555050565b6118d9838383611950565b8273ffffffffffffffffffffffffffffffffffffffff16600854837f30e5fb28e00aab05ae396f77b088b8627fa5f78c42fbd55fdb593caa2e3f2a2e84604051611923919061255e565b60405180910390a4600b600081548092919061193e906126c4565b919050555061194b610d97565b505050565b600073ffffffffffffffffffffffffffffffffffffffff166004600084815260200190815260200160002060009054906101000a900473ffffffffffffffffffffffffffffffffffffffff1673ffffffffffffffffffffffffffffffffffffffff16146119f2576040517f08c379a00000000000000000000000000000000000000000000000000000000081526004016119e990612d5e565b60405180910390fd5b80600160008481526020019081526020016000209081611a129190612f2a565b5081600260008573ffffffffffffffffffffffffffffffffffffffff1673ffffffffffffffffffffffffffffffffffffffff1681526020019081526020016000206000600360008773ffffffffffffffffffffffffffffffffffffffff1673ffffffffffffffffffffffffffffffffffffffff16815260200190815260200160002060008154611aa1906126c4565b919050819055815260200190815260200160002081905550826004600084815260200190815260200160002060006101000a81548173ffffffffffffffffffffffffffffffffffffffff021916908373ffffffffffffffffffffffffffffffffffffffff160217905550505050565b600033905090565b6040518060c00160405280600060ff168152602001600063ffffffff168152602001600060ff168152602001600060ff16815260200160008019168152602001606081525090565b6000819050919050565b611b7381611b60565b82525050565b6000602082019050611b8e6000830184611b6a565b92915050565b600080fd5b600080fd5b600073ffffffffffffffffffffffffffffffffffffffff82169050919050565b6000611bc982611b9e565b9050919050565b611bd981611bbe565b8114611be457600080fd5b50565b600081359050611bf681611bd0565b92915050565b611c0581611b60565b8114611c1057600080fd5b50565b600081359050611c2281611bfc565b92915050565b60008060408385031215611c3f57611c3e611b94565b5b6000611c4d85828601611be7565b9250506020611c5e85828601611c13565b9150509250929050565b600060ff82169050919050565b611c7e81611c68565b82525050565b600063ffffffff82169050919050565b611c9d81611c84565b82525050565b6000819050919050565b611cb681611ca3565b82525050565b600081519050919050565b600082825260208201905092915050565b60005b83811015611cf6578082015181840152602081019050611cdb565b60008484015250505050565b6000601f19601f8301169050919050565b6000611d1e82611cbc565b611d288185611cc7565b9350611d38818560208601611cd8565b611d4181611d02565b840191505092915050565b600060c082019050611d616000830189611c75565b611d6e6020830188611c94565b611d7b6040830187611c75565b611d886060830186611c75565b611d956080830185611cad565b81810360a0830152611da78184611d13565b9050979650505050505050565b611dbd81611c68565b8114611dc857600080fd5b50565b600081359050611dda81611db4565b92915050565b611de981611c84565b8114611df457600080fd5b50565b600081359050611e0681611de0565b92915050565b611e1581611ca3565b8114611e2057600080fd5b50565b600081359050611e3281611e0c565b92915050565b600080fd5b600080fd5b600080fd5b60008083601f840112611e5d57611e5c611e38565b5b8235905067ffffffffffffffff811115611e7a57611e79611e3d565b5b602083019150836001820283011115611e9657611e95611e42565b5b9250929050565b60008060008060008060008060e0898b031215611ebd57611ebc611b94565b5b6000611ecb8b828c01611be7565b9850506020611edc8b828c01611dcb565b9750506040611eed8b828c01611df7565b9650506060611efe8b828c01611dcb565b9550506080611f0f8b828c01611dcb565b94505060a0611f208b828c01611e23565b93505060c089013567ffffffffffffffff811115611f4157611f40611b99565b5b611f4d8b828c01611e47565b92509250509295985092959890939650565b60008083601f840112611f7557611f74611e38565b5b8235905067ffffffffffffffff811115611f9257611f91611e3d565b5b602083019150836020820283011115611fae57611fad611e42565b5b9250929050565b60008083601f840112611fcb57611fca611e38565b5b8235905067ffffffffffffffff811115611fe857611fe7611e3d565b5b60208301915083602082028301111561200457612003611e42565b5b9250929050565b60008060008060006060868803121561202757612026611b94565b5b600061203588828901611be7565b955050602086013567ffffffffffffffff81111561205657612055611b99565b5b61206288828901611f5f565b9450945050604086013567ffffffffffffffff81111561208557612084611b99565b5b61209188828901611fb5565b92509250509295509295909350565b6000602082840312156120b6576120b5611b94565b5b60006120c484828501611be7565b91505092915050565b600081519050919050565b600082825260208201905092915050565b6000819050602082019050919050565b61210281611b60565b82525050565b600061211483836120f9565b60208301905092915050565b6000602082019050919050565b6000612138826120cd565b61214281856120d8565b935061214d836120e9565b8060005b8381101561217e5781516121658882612108565b975061217083612120565b925050600181019050612151565b5085935050505092915050565b600060208201905081810360008301526121a5818461212d565b905092915050565b6000602082840312156121c3576121c2611b94565b5b60006121d184828501611c13565b91505092915050565b6121e381611bbe565b82525050565b60006020820190506121fe60008301846121da565b92915050565b60008060006040848603121561221d5761221c611b94565b5b600061222b86828701611be7565b935050602084013567ffffffffffffffff81111561224c5761224b611b99565b5b61225886828701611e47565b92509250509250925092565b600081519050919050565b600082825260208201905092915050565b6000819050602082019050919050565b61229981611c68565b82525050565b6122a881611c84565b82525050565b6122b781611ca3565b82525050565b600082825260208201905092915050565b60006122d982611cbc565b6122e381856122bd565b93506122f3818560208601611cd8565b6122fc81611d02565b840191505092915050565b600060c08301600083015161231f6000860182612290565b506020830151612332602086018261229f565b5060408301516123456040860182612290565b5060608301516123586060860182612290565b50608083015161236b60808601826122ae565b5060a083015184820360a086015261238382826122ce565b9150508091505092915050565b600061239c8383612307565b905092915050565b6000602082019050919050565b60006123bc82612264565b6123c6818561226f565b9350836020820285016123d885612280565b8060005b8581101561241457848403895281516123f58582612390565b9450612400836123a4565b925060208a019950506001810190506123dc565b50829750879550505050505092915050565b6000602082019050818103600083015261244081846123b1565b905092915050565b60008060006040848603121561246157612460611b94565b5b600061246f86828701611be7565b935050602084013567ffffffffffffffff8111156124905761248f611b99565b5b61249c86828701611fb5565b92509250509250925092565b60008083601f8401126124be576124bd611e38565b5b8235905067ffffffffffffffff8111156124db576124da611e3d565b5b6020830191508360208202830111156124f7576124f6611e42565b5b9250929050565b60008060006040848603121561251757612516611b94565b5b600061252586828701611be7565b935050602084013567ffffffffffffffff81111561254657612545611b99565b5b612552868287016124a8565b92509250509250925092565b600060208201905081810360008301526125788184611d13565b905092915050565b600080fd5b600060c0828403121561259b5761259a612580565b5b81905092915050565b600080604083850312156125bb576125ba611b94565b5b60006125c985828601611be7565b925050602083013567ffffffffffffffff8111156125ea576125e9611b99565b5b6125f685828601612585565b9150509250929050565b60008060008060006060868803121561261c5761261b611b94565b5b600061262a88828901611be7565b955050602086013567ffffffffffffffff81111561264b5761264a611b99565b5b61265788828901611f5f565b9450945050604086013567ffffffffffffffff81111561267a57612679611b99565b5b612686888289016124a8565b92509250509295509295909350565b7f4e487b7100000000000000000000000000000000000000000000000000000000600052601160045260246000fd5b60006126cf82611b60565b91507fffffffffffffffffffffffffffffffffffffffffffffffffffffffffffffffff820361270157612700612695565b5b600182019050919050565b60008160f81b9050919050565b60006127248261270c565b9050919050565b61273c61273782611c68565b612719565b82525050565b60008160e01b9050919050565b600061275a82612742565b9050919050565b61277261276d82611c84565b61274f565b82525050565b6000819050919050565b61279361278e82611ca3565b612778565b82525050565b600081905092915050565b82818337600083830152505050565b60006127bf8385612799565b93506127cc8385846127a4565b82840190509392505050565b60006127e4828a61272b565b6001820191506127f48289612761565b600482019150612804828861272b565b600182019150612814828761272b565b6001820191506128248286612782565b6020820191506128358284866127b3565b915081905098975050505050505050565b7f4e487b7100000000000000000000000000000000000000000000000000000000600052602260045260246000fd5b6000600282049050600182168061288d57607f821691505b6020821081036128a05761289f612846565b5b50919050565b7f4e487b7100000000000000000000000000000000000000000000000000000000600052603260045260246000fd5b600080fd5b600080fd5b600080fd5b60008235600160c003833603038112612900576128ff6128d5565b5b80830191505092915050565b60006020828403121561292257612921611b94565b5b600061293084828501611dcb565b91505092915050565b60006020828403121561294f5761294e611b94565b5b600061295d84828501611df7565b91505092915050565b60008083356001602003843603038112612983576129826128d5565b5b80840192508235915067ffffffffffffffff8211156129a5576129a46128da565b5b6020830192506001820236038313156129c1576129c06128df565b5b509250929050565b7f4e487b7100000000000000000000000000000000000000000000000000000000600052604160045260246000fd5b6000612a0382611b60565b9150612a0e83611b60565b9250828201905080821115612a2657612a25612695565b5b92915050565b600082825260208201905092915050565b7f4f776e61626c653a2063616c6c6572206973206e6f7420746865206f776e6572600082015250565b6000612a73602083612a2c565b9150612a7e82612a3d565b602082019050919050565b60006020820190508181036000830152612aa281612a66565b9050919050565b7f58313a20496c6c6567616c20446966666963756c747900000000000000000000600082015250565b6000612adf601683612a2c565b9150612aea82612aa9565b602082019050919050565b60006020820190508181036000830152612b0e81612ad2565b9050919050565b7f58313a20496c6c6567616c2045706f6368204475726174696f6e000000000000600082015250565b6000612b4b601a83612a2c565b9150612b5682612b15565b602082019050919050565b60006020820190508181036000830152612b7a81612b3e565b9050919050565b6000612b8c82611b60565b9150612b9783611b60565b9250828203905081811115612baf57612bae612695565b5b92915050565b7f4e487b7100000000000000000000000000000000000000000000000000000000600052601260045260246000fd5b6000612bef82611b60565b9150612bfa83611b60565b925082612c0a57612c09612bb5565b5b828204905092915050565b6000612c2082611b60565b9150612c2b83611b60565b9250828202612c3981611b60565b91508282048414831517612c5057612c4f612695565b5b5092915050565b6000604082019050612c6c6000830185611b6a565b612c796020830184611b6a565b9392505050565b7f4f776e61626c653a206e6577206f776e657220697320746865207a65726f206160008201527f6464726573730000000000000000000000000000000000000000000000000000602082015250565b6000612cdc602683612a2c565b9150612ce782612c80565b604082019050919050565b60006020820190508181036000830152612d0b81612ccf565b9050919050565b7f58313a2048617368205265636f72642045786973747300000000000000000000600082015250565b6000612d48601683612a2c565b9150612d5382612d12565b602082019050919050565b60006020820190508181036000830152612d7781612d3b565b9050919050565b60008190508160005260206000209050919050565b60006020601f8301049050919050565b600082821b905092915050565b600060088302612de07fffffffffffffffffffffffffffffffffffffffffffffffffffffffffffffffff82612da3565b612dea8683612da3565b95508019841693508086168417925050509392505050565b6000819050919050565b6000612e27612e22612e1d84611b60565b612e02565b611b60565b9050919050565b6000819050919050565b612e4183612e0c565b612e55612e4d82612e2e565b848454612db0565b825550505050565b600090565b612e6a612e5d565b612e75818484612e38565b505050565b5b81811015612e9957612e8e600082612e62565b600181019050612e7b565b5050565b601f821115612ede57612eaf81612d7e565b612eb884612d93565b81016020851015612ec7578190505b612edb612ed385612d93565b830182612e7a565b50505b505050565b600082821c905092915050565b6000612f0160001984600802612ee3565b1980831691505092915050565b6000612f1a8383612ef0565b9150826002028217905092915050565b612f3382611cbc565b67ffffffffffffffff811115612f4c57612f4b6129c9565b5b612f568254612875565b612f61828285612e9d565b600060209050601f831160018114612f945760008415612f82578287015190505b612f8c8582612f0e565b865550612ff4565b601f198416612fa286612d7e565b60005b82811015612fca57848901518255600182019150602085019450602081019050612fa5565b86831015612fe75784890151612fe3601f891682612ef0565b8355505b6001600288020188555050505b50505050505056fea2646970667358221220eef6376e7982217ddeca837a95ee0e5514706034c7f0915300f28075a3a3dcc664736f6c63430008130033",
  "immutableReferences": {},
  "source": "// SPDX-License-Identifier: MIT\npragma solidity ^0.8.19;\npragma abicoder v2;  // Enable ABI coder v2\n\nimport \"@openzeppelin/contracts/access/Ownable.sol\";\n\ncontract BlockStorage is Ownable {\n    struct HashRecord {\n        uint8 c;\n        uint32 m;\n        uint8 t;\n        uint8 v;\n        bytes32 k;\n        bytes s;\n    }\n\n    uint256 public constant TARGET_BLOCK_TIME_S = 1;\n\n    // hash ID => hash record\n    mapping(uint256 => bytes) public hashRecords;\n    // address => idx => hash ID\n    mapping(address => mapping(uint256 => uint256)) public hashIdsByAddress;\n    // address => record counter\n    mapping(address => uint256) public recordCount;\n    //hash ID => account address\n    mapping(uint256 => address) public addressesByHashId;\n    // hourly timestamp => hash ID => account address\n    // mapping(uint256 => mapping(uint256 => address)) public hourlyRecords;\n\n    uint256 public epochDurationSec = 60;       // is set by authority\n    // uint256 public epochDurationSec = 3_600;       // is set by authority\n    uint256 public targetDifficulty = 100_000;  // is set by authority\n    uint256 public currentHashId;               // increments with each new Hash\n    uint256 public currentEpoch;                // increments every epoch\n    uint256 public currentEpochTs;              // is set every epoch\n    uint256 public difficulty;                  // ie set every epoch\n    uint256 public epochHashCounter;            // resets every epoch\n\n    constructor(uint256 _currentEpoch, uint256 _difficulty) {\n        currentEpoch = _currentEpoch > 0 ? _currentEpoch : 1;\n        difficulty = _difficulty > 0 ? _difficulty : targetDifficulty;\n        currentEpochTs = block.timestamp;\n    }\n\n    event NewHash(uint256 indexed hashId, uint256 indexed epoch, address indexed account, bytes _bytes);\n    event NewEpoch(uint256 indexed epoch, uint256 difficulty, uint256 ts);\n    event EpochDurationSet(uint256 indexed epoch, uint256 indexed duration);\n    event TargetDifficultySet(uint256 indexed epoch, uint256 indexed difficulty);\n\n    function setEpochDurationSec(uint256 _epochDurationSec) external onlyOwner {\n        require(_epochDurationSec > 0, 'X1: Illegal Epoch Duration');\n        epochDurationSec = _epochDurationSec;\n        emit EpochDurationSet(currentEpoch, _epochDurationSec);\n    }\n\n    function setTargetDifficulty(uint256 _targetDifficulty) external onlyOwner {\n        require(_targetDifficulty > 0, 'X1: Illegal Difficulty');\n        targetDifficulty = _targetDifficulty;\n    }\n\n    function doHousekeeping() public {\n        if (block.timestamp - currentEpochTs > epochDurationSec) {\n            currentEpochTs = block.timestamp;\n            currentEpoch++;\n            uint256 targetHashCount = epochDurationSec / TARGET_BLOCK_TIME_S;\n            difficulty = targetDifficulty * epochHashCounter / targetHashCount;\n            epochHashCounter = 0;\n            emit NewEpoch(currentEpoch, difficulty, currentEpochTs);\n        }\n    }\n\n    function _storeRecord(address _address, uint256 _hashId, bytes memory _bytes) internal {\n        require(addressesByHashId[_hashId] == address(0), 'X1: Hash Record Exists');\n\n        hashRecords[_hashId] = _bytes;\n        hashIdsByAddress[_address][++recordCount[_address]] = _hashId;\n        addressesByHashId[_hashId] = _address;\n    }\n\n    function _storeNewRecord(address _address, uint256 _hashId, bytes memory _bytes) internal {\n        _storeRecord(_address, _hashId, _bytes);\n        emit NewHash(_hashId, currentEpoch, _address, _bytes);\n        epochHashCounter++;\n        // this is done as the last step to avoid using new epoch values\n        doHousekeeping();   // check / start new epoch if required\n    }\n\n    function storeNewRecord(address _address, HashRecord calldata r) external {\n        _storeNewRecord(_address, ++currentHashId, abi.encodePacked(r.c, r.m, r.t, r.v, r.k, r.s));\n    }\n\n    function storeNewRecordData(address _address, uint8 c, uint32 m, uint8 t, uint8 v, bytes32 k, bytes calldata s) external {\n        _storeNewRecord(_address, ++currentHashId, abi.encodePacked(c, m, t, v, k, s));\n    }\n\n    function storeNewRecordBytes(address _address, bytes calldata _bytes) external {\n        _storeNewRecord(_address, ++currentHashId, _bytes);\n    }\n\n    function bulkStoreRecordsInc(address _address, HashRecord[] calldata hh) external {\n        for (uint i = 0; i < hh.length; i++) {\n            _storeRecord(_address, ++currentHashId, abi.encodePacked(hh[i].c, hh[i].m, hh[i].t, hh[i].v, hh[i].k, hh[i].s));\n        }\n    }\n\n    function bulkStoreRecordBytesInc(address _address, bytes[] calldata bb) external {\n        for (uint i = 0; i < bb.length; i++) {\n            _storeRecord(_address, ++currentHashId, bb[i]);\n        }\n    }\n\n    function bulkStoreRecords(address _address, uint256[] calldata _hasIds, HashRecord[] calldata hh) external {\n        for (uint i = 0; i < hh.length; i++) {\n            _storeRecord(_address, _hasIds[i], abi.encodePacked(hh[i].c, hh[i].m, hh[i].t, hh[i].v, hh[i].k, hh[i].s));\n        }\n    }\n\n    function bulkStoreRecordBytes(address _address, uint256[] calldata _hasIds, bytes[] calldata bb) external {\n        for (uint i = 0; i < bb.length; i++) {\n            _storeRecord(_address, _hasIds[i], bb[i]);\n        }\n    }\n\n    function getBytesLen(address _address, uint256 _index) external view returns (uint len) {\n        bytes memory _data = hashRecords[hashIdsByAddress[_address][_index]];\n        assembly {\n            len := mload(_data)\n        }\n    }\n\n    function decodeRecordBytes(uint256 _hashId)\n        public\n        view\n        returns (uint8 c, uint32 m, uint8 t, uint8 v, bytes32 k, bytes memory s)\n    {\n        bytes memory _data = hashRecords[_hashId];\n        uint len;\n        assembly {\n            len := mload(_data)\n            c := mload(add(_data, 1))\n            m := mload(add(_data, 5))\n            t := mload(add(_data, 6))\n            v := mload(add(_data, 7))\n            k := mload(add(_data, 39))\n        }\n        s = new bytes(len - 39);\n        assembly {\n            // Skip the first 32 bytes reserved for the length of the memory array\n            let offset := add(s, 0x20)\n            let count := sub(len, 39)\n            for { let i := 0} lt(i, count) { i := add(i, 1) } {\n                mstore8(add(offset, i), mload(add(_data, add(40, i))))\n            }\n        }\n    }\n\n    function decodeRecordBytes(address _address, uint256 _idx)\n        public\n        view\n        returns (uint8 c, uint32 m, uint8 t, uint8 v, bytes32 k, bytes memory s)\n    {\n        return decodeRecordBytes(hashIdsByAddress[_address][_idx]);\n    }\n\n    function getHashIdsByAddress(address _address) public view returns (uint256[] memory ids) {\n        uint256 count = recordCount[_address];\n        ids = new uint256[](count);\n        for (uint i = 0; i < count; i++) {\n            ids[i] = hashIdsByAddress[_address][i+1];\n        }\n    }\n\n    function getRecordsByAddress(address _address) public view returns (HashRecord[] memory recs) {\n        uint256 count = recordCount[_address];\n        recs = new HashRecord[](count);\n        for (uint i = 0; i < count; i++) {\n            uint256 hashId = hashIdsByAddress[_address][i+1];\n            (recs[i].c, recs[i].m, recs[i].t, recs[i].v, recs[i].k, recs[i].s) = decodeRecordBytes(hashId);\n        }\n    }\n}\n\n",
  "sourcePath": "/home/ubuntu/dev/xenminer/utils/solidity/contracts/BlockStorage.sol",
  "compiler": {
    "name": "solc",
    "version": "0.8.19+commit.7dd6d404.Emscripten.clang"
  },
  "schemaVersion": "3.4.16",
  "updatedAt": "2023-12-03T20:03:03.628Z",
  "devdoc": {
    "kind": "dev",
    "methods": {
      "owner()": {
        "details": "Returns the address of the current owner."
      },
      "renounceOwnership()": {
        "details": "Leaves the contract without owner. It will not be possible to call `onlyOwner` functions anymore. Can only be called by the current owner. NOTE: Renouncing ownership will leave the contract without an owner, thereby removing any functionality that is only available to the owner."
      },
      "transferOwnership(address)": {
        "details": "Transfers ownership of the contract to a new account (`newOwner`). Can only be called by the current owner."
      }
    },
    "version": 1
  },
  "userdoc": {
    "kind": "user",
    "methods": {},
    "version": 1
  }
}